:020000001028C6
:10000800FE00030E83120313BA000408BB000A089B
:10001800BC007F08BD00C72B1128831603133425A5
:10002800CF003525D0003625D1003725D200382518
:10003800D3003925D4003A25D5003B25D6003C25E8
:10004800D7003D25D8003E25D9003F25DA004025B8
:10005800DB004125DC004225DD004325DE00831757
:10006800203084004D3052258313B9308400CF30BE
:100078005225443084004F305225FD018301DD2C88
:10008800831203138615831603138615831203132D
:100098008501A0308400B930C0000408C1001630C2
:1000A800C2004008840083130008C300C00A410846
:1000B800840043088000C10AC20B55288316031325
:1000C800B801B601B701DF01831203138615831641
:1000D80003138615831203138E018F0183160313EE
:1000E8000C11831203130C11970104309700831627
:1000F80003130C15831203130C108E018F011014B7
:10010800831603130C145F0803198728DF01831271
:1001180003138615831603138615831203138E01A2
:100128008F01831603130C11831203130C1197010B
:1001380005309700831603130C15831203130C1054
:100148008E018F011014831603130C145F08031912
:10015800AA28380883120313C0004007A03E840071
:10016800150883138000840A160880000130C00037
:10017800400883160313B8070B303806031D672899
:1001880083120313101044308316031321025D30C9
:1001980003192002031CA0294C3021022C3003191A
:1001A80020020318A029B801B80A0B303802031836
:1001B8005929380883120313C0004007A03E840061
:1001C80083130008C100840A0008C20007304202F5
:1001D800D13003194102031C16298316031338086A
:1001E80083120313C0004007A03E84000008C1002A
:1001F800840A0008C2000F304202A03003194102ED
:10020800031816290130831603130310B60DB70D12
:10021800FF3E031D09290130B6070318B70A00304D
:10022800B7074D2983160313380883120313C00038
:100238004007A03E84000008C100840A0008C200EC
:1002480019304202653003194102031C4A298316FA
:100258000313380883120313C0004007A03E84002C
:100268000008C100840A0008C2002130420234306C
:100278000319410203184A29013083160313031096
:10028800B60DB70DFF3E031D43294D29163008252D
:100298005929013083120313C00040088316031341
:1002A800B8070B303802031CDD282F3008258312CD
:1002B80003130C1E5B298316031337080F39CF3E2F
:1002C8008400831300088312031399000C1E6A2903
:1002D8000C1E6C2983160313370883120313C100FD
:1002E80083160313360883120313C0000430031067
:1002F800C10CC00CFF3E031D7B2940080F39CF3EBF
:1003080084008313000899000C1E88290C1E8A2972
:100318008316031336080F39CF3E84008313000871
:100328008312031399000C1E97290C1E99290A3071
:1003380099000C1AA2299D29163008258316031343
:10034800B8016728831603130C11831203130C11C9
:100358009701101004304E02031C08002D30840051
:10036800440883138000840A45088000840A4608EC
:100378008000840A47088000840A48088000840AAC
:1003880049088000B801033038020318F7293808F3
:100398004A3E84003A300002031CDB2938084A3EF2
:1003A80084000008093E0F39A500A601E529380890
:1003B8004A3E84000008D03EA500FF3003180030F4
:1003C800A6003808A70027072D3E840025088000CE
:1003D800840A260880000130A5002508B8070330E4
:1003E8003802031CCB294D08D03EA500FF30031866
:1003F8000030A6002508260403195F2A1D301E2593
:1004080083120313B301043033020318192A330883
:100418004A3E840083138001CE010130A5002508DF
:10042800B30704303302031C0B2A02302D3E84002C
:1004380083130008A500840A0008A600A50EA60ECE
:10044800F030A60525080F39A604F030A5052D08BB
:10045800A800A701FF302705A90003302805AA0036
:1004680025082907AB0026080318260A2A07AC0026
:1004780031082B07F70032080318320A2C07F80056
:100488008124003A031D080024301E252030502402
:1004980083120313CE01B401043034020318080098
:1004A80034084A3E840083138001CE010130A50040
:1004B8002508B407502A2D08A600A501FF302505F8
:1004C800AD0003302605AE0002302D3E8400000842
:1004D800A500840A0008A600A50EA60EF030A60501
:1004E80025080F39A604F030A505F0302505A7002A
:1004F80000302605A8002708AD070318AE0A28080B
:10050800AE070F303105A50000303205A6002508DA
:10051800AD070318AE0A2608AE072E08F8002D0806
:10052800F7008124003A031DB02A24301E2520300C
:10053800502483120313CE01B50104303502031889
:10054800080035084A3E840083138001CE0101303B
:10055800A5002508B507A12A5A25003A031DCE2A69
:100568008312031398170F301E252030502483124E
:100578000313CE01B601043036020318080036080A
:100588004A3E840083138001CE010130A50025086E
:10059800B607BF2A2030502483120313CE01B701B7
:1005A800043037020318E62A37084A3E84008313CA
:1005B8008001CE010130A5002508B70704303702B5
:1005C800031CD82A08301E25080083120313A40030
:1005D8002408840083170008F00001300310F00D90
:1005E800FF3E031DF22A0310700DFD3E2407F100A3
:1005F800710A84000008031D032B003008008316CD
:10060800031386118312031386111930F100053084
:10061800F000F00B0D2BF10B0D2B83120313861535
:100628000630F1003030F000F00B182BF10B182BCE
:10063800000083120313A301240884008317000811
:1006480023020318C22B2308F00001300310F00D19
:10065800FF3E031D2A2B0310700D013E2407F100F5
:10066800710A840083170008F200F3010310F20DE9
:10067800F30D2308F40001300310F40DFF3E031DB1
:10068800402B0310740D013E2407F5007508840003
:100698000008F600F7010310F60DF70D0310F60D2C
:1006A800F70D72087607F80073080318730A7707BE
:1006B800F9002308FA0001300310FA0DFF3E031D6C
:1006C800602B03107A0D013E2407FB007B08023ED5
:1006D800840000087807A00000300318013079076B
:1006E800A100A2010A3022020318BD2B220AF00041
:1006F8002108F2002008F100842B0310F10DF20DFF
:10070800F00B812BF21C9E2B86110430F100E43093
:10071800F000F00B8D2BF10B8D2B000083120313CF
:1007280086150C30F100AF30F000F00B992BF10B6F
:10073800992BB32B86110A30F100BC30F000F00B76
:10074800A32BF10BA32B000083120313861506308D
:10075800F100D730F000F00BAF2BF10BAF2B0130CD
:10076800F000700883120313A2070A302202031C48
:100778007A2B0130F0007008A307202B831603138F
:100788008615013008008C1EF72B1A08B9003908A5
:10079800FC0052307C060319002849307C06031DF2
:1007A800DD2B2030502483120313CE012B301E255D
:1007B8000B2C0430831203134E020318F12B7C0810
:1007C800B9004E084A3E840039088313800001307E
:1007D800B9003908CE07A6210B2C01301E2583123B
:1007E8000313CE010B2C0C1CFB2B0C1000288312BE
:1007F80003130C1D0B2C0C110130B900390883169A
:100808000313DF000130831203138500850183126F
:1008180003133D08FF003C088A003B0884003A0E99
:100828008300FE0E7E0E090004308A000408840A44
:10083800820700343D343D343E34203433340A34A6
:1008480000343D343D343E34203430340A340034EE
:100858003D343D343E34203431340A3400343D34A0
:100868003D343E34203432340A3400343D343D348F
:100878003E34203434340A3400343D343D343E347C
:10088800203435340A3400344F344B340A340034BD
:100898003034783430340034F400F201F301730852
:1008A800803AFF0080307F02031D5C2C0B307202FF
:1008B80003187C2C7208F10001300310F10DFF3E83
:1008C800031D612C0310710D013E7407442501308E
:1008D800F2070318F30A0030F3077308803AFF00A1
:1008E80080307F02031D7A2C0B307202031C5E2CB1
:1008F800740884008317800108007808FA007708D4
:10090800F9000310FA0CF90C0310FA0CF90C790829
:10091800FB007B0883120313A0007808FA0077080D
:10092800F9000310FA0CF90C79080139FB007B086F
:10093800A10077080139F9007908A2002308F3001B
:100948002208F2002108F1002008F0002030F90008
:100958007908F400B0240800740884000B30831769
:1009680000020318DB2C740884000008F50001302D
:100978000310F50DFF3E031DBC2C0310750D013E41
:100988007407F6007608840070088000840A7108ED
:100998008000840A72088000840A7308800001308D
:1009A800F5007408840075088007013008000030DD
:1009B8000800013083120313850083160313850191
:1009C80083120313051486018316031306140611F4
:1009D80024309800903083120313980081308316D6
:1009E800031399000C148312031390018E018F01D5
:1009F8008C01C0308B002530831603138C000C1437
:100A08000C154420062D102883120313BF003F083D
:100A180084001824003A031908000C1E112D3F0801
:100A28008400182499000130BE003E08BF070C1A44
:100A38000B2D1B2DF100710884001824003A0319AE
:100A48000800831203130C1E252D71088400182436
:100A580099000130F0007008F1070C1A1F2D312D94
:100A68003034313432343334343435343634373442
:100A780038343934413442344334443445344634C8
:100A8800F0007008023E840083178001700884001B
:100A980080017008033E8400800108006400800122
:100AA800840A0406031900340406532D2030E92271
:020AB800080034
:02400E002AFF87
:00000001FF
